{
  "_format": "hh-sol-artifact-1",
  "contractName": "WavePortal",
  "sourceName": "contracts/WavePortal.sol",
  "abi": [
    {
      "inputs": [],
      "stateMutability": "nonpayable",
      "type": "constructor"
    },
    {
      "anonymous": false,
      "inputs": [
        {
          "indexed": true,
          "internalType": "address",
          "name": "from",
          "type": "address"
        },
        {
          "indexed": false,
          "internalType": "uint256",
          "name": "timestamp",
          "type": "uint256"
        },
        {
          "indexed": false,
          "internalType": "string",
          "name": "message",
          "type": "string"
        }
      ],
      "name": "Wave",
      "type": "event"
    },
    {
      "inputs": [],
      "name": "getTotalWaves",
      "outputs": [
        {
          "internalType": "uint256",
          "name": "",
          "type": "uint256"
        }
      ],
      "stateMutability": "view",
      "type": "function"
    },
    {
      "inputs": [
        {
          "internalType": "string",
          "name": "_message",
          "type": "string"
        }
      ],
      "name": "wave",
      "outputs": [],
      "stateMutability": "nonpayable",
      "type": "function"
    }
  ],
  "bytecode": "0x608060405234801561001057600080fd5b5061003c6040518060600160405280602681526020016109276026913961004160201b61014e1760201c565b6101c4565b6100dd816040516024016100559190610142565b6040516020818303038152906040527f41304fac000000000000000000000000000000000000000000000000000000007bffffffffffffffffffffffffffffffffffffffffffffffffffffffff19166020820180517bffffffffffffffffffffffffffffffffffffffffffffffffffffffff83818316178352505050506100e060201b60201c565b50565b60008151905060006a636f6e736f6c652e6c6f679050602083016000808483855afa5050505050565b600061011482610164565b61011e818561016f565b935061012e818560208601610180565b610137816101b3565b840191505092915050565b6000602082019050818103600083015261015c8184610109565b905092915050565b600081519050919050565b600082825260208201905092915050565b60005b8381101561019e578082015181840152602081019050610183565b838111156101ad576000848401525b50505050565b6000601f19601f8301169050919050565b610754806101d36000396000f3fe608060405234801561001057600080fd5b50600436106100365760003560e01c8063449d46c01461003b5780639a2cdc0814610057575b600080fd5b610055600480360381019061005091906103b0565b610075565b005b61005f610120565b60405161006c91906104ca565b60405180910390f35b60016000808282546100879190610587565b925050819055506100cd6040518060400160405280600d81526020017f2573206861732077617665642100000000000000000000000000000000000000815250336101e7565b3373ffffffffffffffffffffffffffffffffffffffff167fb3e51a630caed8463371c93124524390a2f94497ca394376b1760eaccd77e09d42836040516101159291906104e5565b60405180910390a250565b60006101466040518060600160405280602381526020016106fc60239139600054610283565b600054905090565b6101e4816040516024016101629190610448565b6040516020818303038152906040527f41304fac000000000000000000000000000000000000000000000000000000007bffffffffffffffffffffffffffffffffffffffffffffffffffffffff19166020820180517bffffffffffffffffffffffffffffffffffffffffffffffffffffffff838183161783525050505061031f565b50565b61027f82826040516024016101fd92919061046a565b6040516020818303038152906040527f319af333000000000000000000000000000000000000000000000000000000007bffffffffffffffffffffffffffffffffffffffffffffffffffffffff19166020820180517bffffffffffffffffffffffffffffffffffffffffffffffffffffffff838183161783525050505061031f565b5050565b61031b828260405160240161029992919061049a565b6040516020818303038152906040527f9710a9d0000000000000000000000000000000000000000000000000000000007bffffffffffffffffffffffffffffffffffffffffffffffffffffffff19166020820180517bffffffffffffffffffffffffffffffffffffffffffffffffffffffff838183161783525050505061031f565b5050565b60008151905060006a636f6e736f6c652e6c6f679050602083016000808483855afa5050505050565b600061035b6103568461053a565b610515565b90508281526020810184848401111561037357600080fd5b61037e848285610619565b509392505050565b600082601f83011261039757600080fd5b81356103a7848260208601610348565b91505092915050565b6000602082840312156103c257600080fd5b600082013567ffffffffffffffff8111156103dc57600080fd5b6103e884828501610386565b91505092915050565b6103fa816105dd565b82525050565b600061040b8261056b565b6104158185610576565b9350610425818560208601610628565b61042e816106ea565b840191505092915050565b6104428161060f565b82525050565b600060208201905081810360008301526104628184610400565b905092915050565b600060408201905081810360008301526104848185610400565b905061049360208301846103f1565b9392505050565b600060408201905081810360008301526104b48185610400565b90506104c36020830184610439565b9392505050565b60006020820190506104df6000830184610439565b92915050565b60006040820190506104fa6000830185610439565b818103602083015261050c8184610400565b90509392505050565b600061051f610530565b905061052b828261065b565b919050565b6000604051905090565b600067ffffffffffffffff821115610555576105546106bb565b5b61055e826106ea565b9050602081019050919050565b600081519050919050565b600082825260208201905092915050565b60006105928261060f565b915061059d8361060f565b9250827fffffffffffffffffffffffffffffffffffffffffffffffffffffffffffffffff038211156105d2576105d161068c565b5b828201905092915050565b60006105e8826105ef565b9050919050565b600073ffffffffffffffffffffffffffffffffffffffff82169050919050565b6000819050919050565b82818337600083830152505050565b60005b8381101561064657808201518184015260208101905061062b565b83811115610655576000848401525b50505050565b610664826106ea565b810181811067ffffffffffffffff82111715610683576106826106bb565b5b80604052505050565b7f4e487b7100000000000000000000000000000000000000000000000000000000600052601160045260246000fd5b7f4e487b7100000000000000000000000000000000000000000000000000000000600052604160045260246000fd5b6000601f19601f830116905091905056fe57652068617665206120746f74616c206f6620256420776176657320736f206661722ea26469706673582212201f5e8b5202c10df1d65a90700d67a474230b75dc15b3ce46cdb3d4cb1e78228564736f6c63430008040033596f20796f2c204920616d206120636f6e747261637420616e64204920616d20736d6172742e",
  "linkReferences": {},
  "deployedLinkReferences": {}
}